:060000000A128A110E280D
:10000800FE00030EF2000408F3000A08F4000A12C6
:100018008A11B8290A128A111128F80183120313C8
:10002800B301B401B501B601B701B801B901830143
:100038000A128A111F280A128A113A220A128A11F0
:100048000A128A115A220A128A110A128A114D2298
:100058000A128A110A128A1168220A128A110A12CD
:100068008A1162220A128A118312031306183D2884
:100078003E284428061C412842283E280130B60262
:100088008618472848285028861C4B284C2848287A
:100098000130B0003008B607360885003930B000A6
:1000A8003008A8003830B1003108A9003730B20054
:1000B8003208AA0036080A128A11F8200A128A1190
:1000C8008312031337080A128A11FB210A128A11B4
:1000D80083120313B0003008B30038080A128A11DB
:1000E800FB210A128A1183120313B0003008B400EE
:1000F80039080A128A11FB210A128A118312031382
:10010800B0003008B500350887000130880038286D
:100118000A128A110E2883120313A501A11F95281C
:1001280096289D28A009A109A00A0319A10AA501DA
:10013800A50AA31FA028A128AA28A209A309A20AE0
:100148000319A30A0130F5007508A506A601A70141
:10015800200821040319B128B228E928A401A40A17
:10016800C02801300310A00DA10DFF3E031DB628C5
:100178000130F5007508A407A11FC328C428B528B5
:1001880001300310A60DA70DFF3E031DC528210849
:100198002302031DD12820082202031CD428D528B5
:1001A800DC282008A2022108031CA303A3022614AA
:1001B80001300310A10CA00CFF3E031DDD28013007
:1001C800A402031DE828E928C42825080319ED28F6
:1001D800EE28F328A609A709A60A0319A70A2708DB
:1001E800A1002608A000080083120313AE006430A3
:1001F800A0000030A1002E08AB00AC012B08A20023
:100208002C08A3000A128A118F200A128A1183125D
:1002180003132008AD00280884002D0883138000EC
:100228006430A0000030A1002E08AB00AC012B0800
:10023800A2002C08A3000A128A115D210A128A1151
:10024800831203132008AD002D08AF000A30A00068
:100258000030A1002F08AB00AC012B08A2002C082D
:10026800A3000A128A118F200A128A11831203131B
:100278002008AD00290884002D08831380000A3067
:10028800A0000030A1002F08AB00AC012B08A20091
:100298002C08A3000A128A115D210A128A118312FE
:1002A80003132008AD002A0884002D08831380005A
:1002B8000800F70183120313A31F632964296B291C
:1002C800A209A309A20A0319A30AF701F70AA11FA1
:1002D8006E296F297429A009A109A00A0319A10A86
:1002E80020082104031979297A29A929F601F60A8F
:1002F800882901300310A00DA10DFF3E031D7E29A2
:100308000130F5007508F607A11F8B298C297D2976
:1003180021082302031D922920082202031C952983
:1003280096299C292008A2022108031CA303A302E2
:1003380001300310A10CA00CFF3E031D9D290130C4
:10034800F602031DA829A9298C2977080319AD29C4
:10035800AE29B329A209A309A20A0319A30A2308EB
:10036800A1002208A00008000B1DBB29BC29F22906
:100378000B11831203138801DF29F801F80A0130F1
:1003880088003508870083308100F2290230F000A8
:100398007008F80002308800340887008330810034
:1003A800F229F8010430880033088700833081007F
:1003B800F229F801DA297808F000F1017108003A09
:1003C8000319E729DD297008003A0319C129013A00
:1003D8000319CA29033A0319D529DD2974088A00A3
:1003E80073088400720E8300FE0E7E0E0900F7006B
:1003F800112A3F30392A0630392A5B30392A4F30E2
:10040800392A6630392A6D30392A7D30392A073041
:10041800392A7F30392A6F30392A7708F500F601F2
:100428007608003A0319192AFD297508003A0319B4
:10043800FD29013A0319FF29033A0319012A013A50
:100448000319032A073A0319052A013A0319072A47
:10045800033A0319092A013A03190B2A0F3A031917
:100468000D2A013A03190F2AFD29080083160317DC
:1004780088018901831603138501033086008701EB
:10048800F8308800831203138501860187018801EB
:1004980008008316031381120112811101118110C2
:1004A8000114833083120313810008008316031399
:1004B8000F088F3940388F000F1408008316031374
:1004C80081130330950008008B178B160B11080059
:04400E00D420FF3F7C
:00000001FF
